:020000040800F2
:10000000D8440020A5130008391C00083B1C000838
:100010003F1C0008431C0008471C000800000000AB
:100020000000000000000000000000004B1C000861
:100030004D1C0008000000004F1C0008BD13000804
:10004000BF130008BF130008BF130008BF13000848
:10005000BF130008BF130008BF130008BF13000838
:10006000BF130008BF130008BF130008BF13000828
:10007000BF130008BF130008BF130008BF13000818
:10008000BF130008BF130008BF130008BF13000808
:10009000BF130008BF130008BF130008BF130008F8
:1000A000BF130008BF130008BF130008BF130008E8
:1000B000BF130008BF130008BF130008BF130008D8
:1000C000BF130008BF130008BF130008BF130008C8
:1000D000BF130008BF130008BF130008BF130008B8
:1000E000BF130008BF130008BF1300080000000082
:1000F0000000000000000000000000000000000000
:100100000000000000000000BF130008BF1300083B
:10011000BF130008BF130008BF130008BF13000877
:10012000BF130008BF130008BF130008BF13000867
:10013000BF130008BF130008BF130008BF13000857
:10014000BF130008BF130008BF130008BF13000847
:10015000DFF80CD003F046F80048004729140008E7
:10016000D84400200CB5002001900090924800680F
:1001700040F480309049086000BF8F48006800F468
:10018000003000900198401C0190009818B9019827
:10019000B0F5A06FF1D18848006800F4003010B1CC
:1001A0000120009001E000200090009801285CD11F
:1001B0008248006840F010008049086008460068E6
:1001C00020F0030008600846006840F00200086064
:1001D0007948406878494860084640684860084661
:1001E000406840F4806048600846C06A744908402E
:1001F0007149C8620846C06A724908436E49C862BC
:100200000846006840F08060086000BF6A480068E7
:1002100000F000600028F9D06748406820F47C10A6
:10022000654948600846406840F4E8104860084660
:10023000006840F08070086000BF5F48006800F010
:1002400000700028F9D05C48406820F003005A494B
:1002500048600846406840F00200486000BF5648C9
:10026000406800F00C000828F9D10CBD10B5FFF76C
:1002700079FF10BD10B55048006840F001004E49AC
:10028000086008464068504908404B4948600846A5
:1002900000684E490840484908600846006820F454
:1002A000802008600846406820F4FE004860084648
:1002B000006820F0A05008604FF47F0088600020A4
:1002C000C862FFF7D3FF4FF000604149086010BDDE
:1002D000F0B5002100200023002400220025002684
:1002E000354F7F6807F00C0121B1042908D0082997
:1002F0004BD10BE0374FDFF8E0C0CCF800704AE09C
:10030000364FDFF8D4C0CCF8007044E02A4F7F6845
:1003100007F47010284F7F6807F48033800C0D2895
:1003200001D0801C00E0062033B92D4F4743DFF891
:10033000A8C0CCF8007027E01F4FFF6A07F4803494
:100340001D4FFF6A07F00F077A1C44B9234FB7FB14
:10035000F2F74743DFF880C0CCF8007014E0164F86
:10036000FF6AC7F303177D1C134FFF6AC7F3032708
:10037000BE1C1A4FB7FBF5F77743B7FBF2F74743BD
:10038000DFF854C0CCF8007005E0124FDFF848C029
:10039000CCF8007000BF00BF074F7F68C7F303179A
:1003A000DFF840C01CF807100B4F3F68CF40DFF864
:1003B00028C0CCF80070F0BD0010024000200240C0
:1003C00000F0FEFF440601000000FFF0FFFFF6FE14
:1003D00008ED00E000127A000000002040787D0166
:1003E00000093D000400002010B50446CC488442BA
:1003F00008D10121042000F0E9FB0021042000F0D5
:10040000E5FB46E0C748844208D10121082000F0FE
:10041000DDFB0021082000F0D9FB3AE0C24884420D
:1004200008D10121102000F0D1FB0021102000F0A4
:10043000CDFB2EE0BD48844208D10121202000F0F0
:10044000C5FB0021202000F0C1FB22E0B848844217
:1004500008D10121402000F0B9FB0021402000F02C
:10046000B5FB16E0B348844208D10121802000F09A
:10047000ADFB0021802000F0A9FB0AE0AE488442D9
:1004800007D10121801500F0A1FB0021A01500F08B
:100490009DFB10BD10B50121084600F097FB00211F
:1004A000012000F093FB10BD2DE9F041024600252C
:1004B0000026002000230024002791F803C00CF040
:1004C0000F0591F803C00CF0100CBCF1000F03D025
:1004D00091F802C04CEA050591F800C0BCF1000F8C
:1004E00031D0146800202BE04FF0010C0CFA00F31F
:1004F000B1F800C00CEA03069E4220D183004FF001
:100500000F0C0CFA03F7BC4305FA03FC4CEA040495
:1005100091F803C0BCF1280F06D14FF0010C0CFA82
:1005200000FCC2F814C00AE091F803C0BCF1480F07
:1005300005D14FF0010C0CFA00FCC2F810C0401CB1
:100540000828D1D31460B1F800C0BCF1FF0F34DD2E
:10055000546800202EE000F1080C4FF0010808FA62
:100560000CF3B1F800C00CEA03069E4221D18300CF
:100570004FF00F0C0CFA03F7BC4305FA03FC4CEAEE
:10058000040491F803C0BCF1280F05D100F1080C58
:1005900008FA0CF8C2F8148091F803C0BCF1480FB7
:1005A00007D100F1080C4FF0010808FA0CF8C2F866
:1005B0001080401C0828CED35460BDE8F0814FF66F
:1005C000FF710180022181700421C17070470246D1
:1005D000002093680B400BB1012000E00020704721
:1005E0000146886880B2704702460020D3680B40FD
:1005F0000BB1012000E0002070470146C86880B2BE
:10060000704701617047416170470AB1016100E0C4
:1006100041617047C16070474FF480320A43826184
:100620008161826182698269704702460020434B82
:1006300018684FF68073184040EA021008433F4B99
:10064000186070473E49C8617047F0B50A460023FC
:1006500000240021002500F00046B6F1004F02D131
:10066000364EF16901E0354E7168C0F3034583B23F
:1006700000F44016B6F5401F08D121F070612F4EEE
:10068000766826F070662D4F7E6012E000F48016CA
:10069000B6F5801F06D1032606FA05F4A14341F002
:1006A000706106E0460D360103FA06F6B14341F0EB
:1006B000706122B1460D360103FA06F6314300F0AF
:1006C0000046B6F1004F02D11C4EF16101E01B4E15
:1006D0007160F0BD30B500228B071C0F0F2303FAA9
:1006E00004F2164B08338C1053F824309343134C08
:1006F00008348D1044F8253023468C1053F82430EC
:100700008C07240F00FA04F423430C4C08348D109A
:1007100044F8253030BD0A49DC31086070470000DC
:1007200000080140000C014000100140001401408D
:1007300000180140001C0140002001400000014061
:1007400000002042FB48006840F00100F9490860C1
:1007500008464068F8490840F6494860084600687D
:10076000F6490840F34908600846006820F48020F4
:1007700008600846406820F4FE00486008460068AB
:1007800020F0A05008604FF47F0088600020C8620D
:100790007047E849096821F48031E64A1160114642
:1007A000096821F480211160B0F5803F03D0B0F5D5
:1007B000802F0ED106E0DF49096841F48031DD4A1F
:1007C000116007E0DB49096841F4A021D94A1160B2
:1007D00000E000BF00BF704710B5014600220023B3
:1007E00000204A11012A02D1D24C236806E0022AD5
:1007F00002D1D04C236A01E0CE4C636A01F01F02A3
:10080000012494401C400CB1012000E0002010BDE8
:1008100038B5002000900024002500BF3120FFF7EC
:10082000DBFF05460098401C00900098B0F5A06FD3
:1008300001D0002DF2D03120FFF7CEFF08B1012406
:1008400000E00024204638BD01460020B94A106867
:1008500020F0F80040EAC10010607047B849086015
:10086000704702460020B34B586820F4741042EAE7
:1008700001031843AF4B58607047B1490866704791
:1008800002460020AB4BD86AAE4B184042EA010347
:100890001843A84BD862704701460020A54AD06A89
:1008A00020F0F0000843D062704701460020A14AC2
:1008B000D06A20F470600843D0627047A04988660F
:1008C0007047014600209B4AD06A20F470400843DC
:1008D000D06270479A490867704701460020954AE0
:1008E000506820F00300084350607047914840680A
:1008F00000F00C007047014600208E4A506820F03E
:10090000F00008435060704701460020894A506853
:1009100020F4E06008435060704701460020854A9B
:10092000506820F4605040EAC1005060704729B11F
:10093000804A527A02437F4B5A7204E07D4A527ACF
:1009400082437C4B5A7270477D49D83108607047AA
:1009500001460020774A506820F440400843506028
:1009600070477949086070477749091D08607047EA
:100970000021704A203211706E4A82F8201001283E
:1009800002D004280AD104E001216A4A2032117001
:1009900005E00521674A2032117000E000BF00BF6A
:1009A00070476A49086070476249096A0143614AB1
:1009B0001162704765494439086070472DE9F0417C
:1009C00000210022002500230026002400278C4659
:1009D000DFF86081D8F8048008F00C0121B1042907
:1009E00007D0082959D109E0DFF86481C0F80080F8
:1009F00058E0DFF86081C0F8008053E0DFF8348110
:100A0000D8F8048008F47012DFF82881D8F8048040
:100A100008F48035920C0D2A01D0921C00E00622C9
:100A200035B9DFF8348102FB08F8C0F8008033E004
:100A3000DFF80081D8F82C8008F48036DFF8F480E5
:100A4000D8F82C8008F00F0808F1010446B9DFF847
:100A50000481B8FBF4F808FB02F8C0F800801BE042
:100A6000DFF8D080D8F82C80C8F3031808F101070C
:100A7000DFF8C080D8F82C80C8F3032808F1020CF6
:100A8000DFF8D080B8FBF7F808FB0CF8B8FBF4F8F7
:100A900008FB02F8C0F8008004E0DFF8B480C0F87A
:100AA000008000BF00BFDFF88C80D8F8048008F019
:100AB000F0010909DFF8A48018F80130D0F80080AF
:100AC00028FA03F8C0F80480DFF86880D8F80480BA
:100AD00008F4E061090ADFF8848018F80130D0F8E2
:100AE000048028FA03F8C0F80880DFF84880D8F8B6
:100AF000048008F46051C90ADFF8608018F80130FA
:100B0000D0F8048028FA03F8C0F80C80DFF82480BD
:100B1000D8F8048008F44041890BDFF8448018F8C5
:100B20000130D0F80C80B8FBF3F8C0F81080BDE8B5
:100B3000F0810000001002400000FFF0FFFFF6FE11
:100B400000004242F0FFFEFFC405424280044242E0
:100B500000127A0040787D0100093D001400002059
:100B60002400002029B1354A52690243334B5A61AF
:100B700004E0324A52698243304B5A61704729B1CE
:100B80002E4A926902432D4B9A6104E02B4A9269E6
:100B900082432A4B9A61704729B1284AD26902439D
:100BA000264BDA6104E0254AD2698243234BDA619D
:100BB000704729B1214A926A0243204B9A6204E0AD
:100BC0001E4A926A82431D4B9A62704729B11B4AA2
:100BD000D2680243194BDA6004E0184AD2688243B3
:100BE000164BDA60704729B1144A12690243134B5D
:100BF0001A6104E0114A12698243104B1A6170476E
:100C00000F49086070470F49C86470470B49C871A5
:100C100070470A48406A40F080700849486270474F
:100C200001460020054A92680A400AB1012000E00E
:100C30000020704701498872704700000010024090
:100C4000400442420000424210B50446CE4884426D
:100C500008D101218014FFF7B9FF0021A014FFF78C
:100C6000B5FF16E0C948844208D101210014FFF7FE
:100C7000BAFF00212014FFF7B6FF0AE0C4488442FF
:100C800007D10121C013FFF7AEFF0021E013FFF7EA
:100C9000AAFF10BD10B50022028802F441520B8851
:100CA0004C8823438C882343CC8823430C892343DB
:100CB0004C8923438C892343CC8923431A430280E4
:100CC000838B4FF2FF74234083830B8A038210BD12
:100CD0002DE9F04F85B006460C464FF0000A02277A
:100CE0004FF000084FF0010B0025A946B08B4FF2E2
:100CF00040010840B08302203084B6F81CA0A068F0
:100D0000022801D100BF59E0A08810B94FF0010BB3
:100D100001E04FF0020B9D48864202D14FF40035AE
:100D200001E04FF480259B48C06A2840C8B199482B
:100D3000C06AC0F30335052D03D90F2D01D2AD1CB8
:100D400002E00F2D00D114259248C06AC0F30310B1
:100D500000F101099048B0FBF9F068434FEA4009FF
:100D600004E06846FFF72AFEDDF80090E088B0F561
:100D7000007F0AD14FEA192000EB80004000A168F3
:100D8000B0FBF1F0401D85B20BE04FEA4B10B9FB10
:100D9000F0F000EB80004000A168B0FBF1F0401DD6
:100DA00085B20A20B5FBF0F505F00108A5EB0800B7
:100DB000C0F34F074FF6FF7000EA0828022F01DB4F
:100DC000FF2F02DD02274FF00008E08840EA08000C
:100DD00038433084A088A18908436188084321886A
:100DE000084340F4006040EA0A0AA6F81CA005B0D7
:100DF000BDE8F08F0021018041808180C1800181A8
:100E000041818181C18107210182704700210180D8
:100E100041808180C18002218160002181817047F1
:100E200021B1028842F04002028004E002884FF6BD
:100E3000BF731A400280704721B1828B42F48062F6
:100E4000828304E0828B4FF6FF331A40828370471F
:100E500030B5002400230C110125A540ABB21AB116
:100E600085881D43858002E085889D43858030BD4F
:100E70001AB183880B43838002E083888B4383808D
:100E80007047818170470146888970474FF6FF623D
:100E9000914204D0028842F48072028004E0028809
:100EA0004FF6FF631A400280704721B1828842F0FA
:100EB0000402828004E082884FF6FB731A4082802D
:100EC000704702884FF2FF731A40028002880A437B
:100ED00002807047018841F480510180704721B140
:100EE000028842F40052028004E002884DF6FF734B
:100EF0001A400280704702460020012901D0108B61
:100F000000E0908A70470146088A7047B1F5804F2B
:100F100004D1028842F48042028004E002884BF649
:100F2000FF731A40028070470246002013890B406D
:100F30000BB1012000E000207047CA4302817047D6
:100F4000F0B50246002000240023002501F00F0721
:100F50000126BE40B4B20B1101269E40B3B2968862
:100F600006EA03051689264016B10DB1012000E0FE
:100F70000020F0BD10B5002201F00F040123A340B2
:100F80009AB2D343038110BD0030014000380040C5
:100F9000003C00400010024040787D0110B504463E
:100FA000FB48844209D101218803FFF70FFE00218D
:100FB0004FF48040FFF70AFE32E0F648844209D140
:100FC00001214804FFF70FFE00214FF40030FFF726
:100FD0000AFE25E0F048844209D101218804FFF788
:100FE00002FE00214FF48020FFF7FDFD18E0EB48E2
:100FF000844209D10121C804FFF7F5FD00214FF417
:101000000020FFF7F0FD0BE0E548844208D1012104
:101010000805FFF7E8FD00214FF48010FFF7E3FD1E
:1010200010BD2DE9F04786B005460E460024A246C5
:1010300000BFA1460027B08900B100BF2F462C8A0F
:101040004CF6FF700440F08804432C82AC894EF6C5
:10105000F3100440B0883189084371890843044380
:10106000AC81AC8A4FF6FF400440B0890443AC82A7
:1010700001A8FFF7A3FCC648874202D1DDF810A003
:1010800001E0DDF80CA0A88900F4004040B10AEBB3
:10109000CA0000EB0A1031684900B0FBF1F807E024
:1010A0000AEBCA0000EB0A1031688900B0FBF1F8C6
:1010B0006420B8FBF0F004012009642101FB1089D1
:1010C000A88900F4004040B1322000EBC900B0FB19
:1010D000F1F000F00700044308E0322000EB0910B3
:1010E0006421B0FBF1F000F00F0004432C8106B046
:1010F000BDE8F0874FF41651016000218180C18066
:1011000001810C21418100218181704710B5024687
:101110000020108A4FF2FF0318400B884C882343AD
:101120008C882343CC8823431843108210BD0021B0
:10113000018041808180C180704721B1828942F461
:101140000052828104E082894DF6FF731A40828149
:101150007047F0B50346002400260025002040F625
:101160006A17B94200D100BF1846C1F3421401F01A
:101170001F06012707FA06F5012C01D10C3004E007
:10118000022C01D1103000E014301AB107682F434F
:10119000076002E00768AF430760F0BD1AB1838AB9
:1011A0000B43838202E0838A8B4383827047028AE7
:1011B0004FF6F0731A400282028A0A430282704795
:1011C00082894FF2FF731A40828182890A438281A9
:1011D000704721B1828942F00202828104E0828953
:1011E0004FF6FD731A4082817047028A4FF6DF7313
:1011F0001A400282028A0A430282704721B1028A9F
:1012000042F48042028204E0028A4BF6FF731A40E5
:1012100002827047C1F308028280704701468888C5
:10122000C0F308007047818941F001018181704756
:10123000028BD2B20283028B42EA01220283704700
:10124000028B02F47F420283028B0A4302837047BF
:1012500021B1828A42F02002828204E0828A4FF623
:10126000DF731A408282704721B1828A42F01002F5
:10127000828204E0828A4FF6EF731A4082827047BE
:1012800021B1828A42F00802828204E0828A4FF60B
:10129000F7731A408282704721B1828942F400427A
:1012A000828103E08289C2F30E028281704721B1FC
:1012B000828A42F40062828204E0828A4FF2FF73E3
:1012C0001A4082827047828A4FF6FB731A408282EC
:1012D000828A0A438282704721B1828A42F00202E6
:1012E000828204E0828A4FF6FD731A408282704740
:1012F00002460020B1F5007F00D100BF13880B40EB
:101300000BB1012000E00020704701F40072B2F53B
:10131000007F00D100BFCA430280704770B502460B
:10132000002400230025002040F66A16B14200D1B7
:1013300000BFC1F3421501F01F03012606FA03F3B3
:10134000012D02D19689334006E0022D02D1168A82
:10135000334001E0968A33400C12012606FA04F469
:101360001688344013B10CB1012000E0002070BD9C
:1013700010B50022002340F66A14A14200D100BF3C
:101380000A1201249440A3B2DC43048010BD000083
:10139000003801400044004000480040004C00403C
:1013A000005000400648804706480047FEE7FEE739
:1013B000FEE7FEE7FEE7FEE7FEE7FEE7FEE7FEE705
:1013C0007502000851010008002105E00A2100BF54
:1013D0000A00A1F10101FBD10200A0F10100F5D149
:1013E00070470021002000BF1BE0002105E0002223
:1013F000384B03EB40135A54491C0B29F7DB0022EE
:10140000344B03EB40135A61324B03EB40131A6128
:10141000304B03EB40139A612E4B03EB4013DA6120
:10142000401CFF28E1DD704700BF00250026002496
:1014300000F0D7FD47F23050FFF7C6FF01F014FA75
:1014400047F23050FFF7C0FF01F0DFFD47F23050A8
:10145000FFF7BAFF00F039F947F23050FFF7B4FF59
:1014600001F081F847F23050FFF7AEFF1948D0F88D
:101470009460D0F8985000BF1FE04FF48071164878
:10148000FFF7C1F84FF480511448FFF7BAF800BFD6
:101490004FF400611148FFF79AF80028F8D00020B7
:1014A00001F0A7F94FF480710B48FFF7AAF84FF449
:1014B00080510A48FFF7A7F8641CB4F5805FDCDBB5
:1014C00002210648FFF79DF803E03146284601F067
:1014D000EAFDFAE7D81C002000080140000C01409A
:1014E00010B501210803FFF74AFB10BD10B586B007
:1014F0000446012C24D10020ADF804004FF4827082
:10150000ADF806000020ADF808000220ADF80A0092
:101510000120ADF80C004002ADF80E000820ADF837
:1015200010000020ADF812000720ADF8140001A94A
:10153000FD48FFF7AFFB0121FB48FFF771FC23E0FB
:101540000020ADF804004FF48270ADF806000020D2
:10155000ADF808000220ADF80A000120ADF80C003B
:101560004002ADF80E003820ADF810000020ADF8B4
:1015700012000720ADF8140001A9EB48FFF78AFB21
:101580000121E948FFF74CFC06B010BD10B5044638
:1015900000BF0221E448FFF7C7FC0028F9D021462C
:1015A000E148FFF76EFC00BF0121DF48FFF7BCFCFC
:1015B0000028F9D0DC48FFF766FCC0B210BD70B55A
:1015C000002500BFFF20FFF7E1FF0446681C85B23D
:1015D0004FF6FE70854201D1012070BDFF2CF1D184
:1015E0000020FAE72DE9F04105460C461646002793
:1015F0001021CE48FFF705F8FF20FFF7C7FF1021A5
:10160000CA48FFF700F845F04000FFF7BFFF200E83
:10161000FFF7BCFFC4F30740FFF7B8FFC4F3072090
:10162000FFF7B4FFE0B2FFF7B1FF3046FFF7AEFFC0
:1016300004E07F1CB7F5487F00D905E0FF20FFF7E5
:10164000A5FF8046FF28F4D000BF1021B748FEF761
:10165000D8FFFF20FFF79AFF4046BDE8F0812DE953
:10166000F04105460C46164600271021AF48FEF70C
:10167000C8FFFF20FFF78AFF1021AC48FEF7C3FF29
:1016800045F04000FFF782FF200EFFF77FFFC4F315
:101690000740FFF77BFFC4F30720FFF777FFE0B2B7
:1016A000FFF774FF3046FFF771FF04E07F1CB7F5CA
:1016B000167F00D905E0FF20FFF768FF8046FF286E
:1016C000F4D000BF4046BDE8F0817CB5FFF708FFCD
:1016D0000020FFF70BFF10219448FEF794FF00262F
:1016E00001E0701C86B2B6F5706FFADB002604E0EC
:1016F000FF20FFF74BFF701C86B20A2EF8DB002597
:1017000000BF952200210846FFF76CFF0446681CC5
:1017100085B2012C01D0C82DF3DBC82D01D10120E9
:101720007CBD87224FF4D5710820FFF798FF04464F
:10173000052C54D101207E49087010217B48FEF70A
:1017400060FFFF20FFF722FF002500BF00221146A7
:101750003720FFF747FF0446012C01D02046DFE782
:10176000002211462920FFF73DFF0446681C85B280
:1017700014B1B5F5C87FE9DBB5F5C87F15D10025F3
:1017800000BF002211460120FFF72CFF0446681C11
:1017900085B214B1B5F5C87FF3DBB5F5C87F01D1CB
:1017A0000120BDE70020624908700120FFF79EFE7E
:1017B000FF20FFF7EBFE952200213B20FFF712FFF1
:1017C00004460CB12046ABE795224FF4007110207F
:1017D000FFF708FF0446002C69D02046A0E7012C43
:1017E00065D1FF20FFF7D2FE8DF80000FF20FFF744
:1017F000CDFE8DF80100FF20FFF7C8FE8DF8020036
:10180000FF20FFF7C3FE8DF8030010214748FEF7C5
:10181000F8FEFF20FFF7BAFE002500BF00221146A8
:101820003720FFF7DFFE0446012C01D0204677E782
:10183000012291072920FFF7D5FE0446C82D01DDBE
:1018400020466DE7002CE9D1002211463A20FFF72F
:1018500006FF04460CB1204662E7FF20FFF796FE24
:101860008DF80000FF20FFF791FE8DF80100FF20AA
:10187000FFF78CFE8DF80200FF20FFF787FE8DF842
:10188000030010212948FEF7BCFEFF20FFF77EFE73
:101890009DF8000000F0400018B1042024490870B1
:1018A00002E00220224908700120FFF71FFE2046B7
:1018B00036E72DE9F04104468846164610211B48BC
:1018C000FEF7A1FE002700BFFF20FFF75FFE0546E1
:1018D000781C87B2B7F57A6F06DD10211348FEF742
:1018E00090FE0120BDE8F081FE2DEDD104E0FF2047
:1018F000FFF74CFE2070641C5FEA0800A8F10101AC
:101900001FFA81F8F3D1FF20FFF740FEFF20FFF719
:101910003DFE012E06D110210448FEF772FEFF2085
:10192000FFF734FE0020DDE70030014000080140F1
:101930009000002070B505460E46BD48007804288A
:1019400000D06D02012229461120FFF74BFE04460C
:101950000CB1204670BD012251023046FFF7A9FFAD
:1019600004460CB90020F5E72046F3E72DE9F041E5
:1019700005460E460020FFF7B9FDAD480078042863
:1019800000D06D02002229461820FFF72BFE0446E6
:1019900014B12046BDE8F0811021A648FEF733FEC1
:1019A000FF20FFF7F3FDFF20FFF7F0FDFF20FFF71B
:1019B000EDFDFE20FFF7EAFD002705E016F8010B1C
:1019C000FFF7E4FD781C87B2B7F5007FF6DBFF2058
:1019D000FFF7DCFDFF20FFF7D9FDFF20FFF7D6FD65
:1019E000044604F01F00052805D010219148FEF799
:1019F00008FE2046CEE74FF000080DE008F1010098
:101A00001FFA80F84FF6FE70804505DD10218948E9
:101A1000FEF7F7FD0120BDE7FF20FFF7B7FD002827
:101A2000ECD010218348FEF7ECFDFF20FFF7AEFD60
:101A30000020AFE72DE9F04105460E4614467C48EC
:101A40000078042800D06D02012229461220FFF7F9
:101A5000C9FD074617B13846BDE8F08100BF002236
:101A60004FF400713046FFF724FF00B105E006F5A2
:101A70000076601EC0B20400F1D100BF0122002137
:101A80000C20FFF7AFFD10216A48FEF7BAFDFF20DA
:101A9000FFF77CFD0CB12046DEE70020DCE72DE9F6
:101AA000F04106460F4615460020FFF71FFD60482F
:101AB0000078042800D076025D48007828B1012221
:101AC00029461720FFF78EFD0446012231461920D2
:101AD000FFF788FD044614B12046BDE8F0811021CF
:101AE0005448FEF790FDFF20FFF750FDFF20FFF761
:101AF0004DFD00BFFC20FFF749FD4FF0000807E057
:101B000017F8010BFFF742FD08F101001FFA80F8FA
:101B1000B8F5007FF4DBFF20FFF738FDFF20FFF76B
:101B200035FDFF20FFF732FD044604F01F000528B5
:101B300005D010213F48FEF764FD2046CDE7FFF7B2
:101B40003EFD012805D110213A48FEF75AFD01203B
:101B5000C3E7681EC0B20500CCD1FD20FFF716FD1B
:101B6000044604B9FE25FFF72AFD28B110213148AB
:101B7000FEF747FD0120B0E710212E48FEF741FD9A
:101B8000FF20FFF703FD2846A7E72DE9F0470746AA
:101B90000D46164698460024790201221120FFF7CF
:101BA00021FD8146B9F1000F02D04846BDE8F0871B
:101BB00010212048FEF727FD0BE0601C84B240F6A0
:101BC000B830844205DD10211A48FEF71AFD0120C5
:101BD000ECE7FF20FFF7DAFCFE28EED1002404E05A
:101BE000FF20FFF7D3FC601C84B2B442F8D306E0B8
:101BF000FF20FFF7CBFC05F8010B601C84B206EB5D
:101C00000800A042F4D804E0FF20FFF7BFFC601CEE
:101C100084B2B4F5007FF7DBFF20FFF7B7FCFF20AD
:101C2000FFF7B4FC10210348FEF7EBFC0020BDE7F2
:101C30009000002000080140704700BFFEE700BF91
:101C4000FEE700BFFEE700BFFEE770477047704742
:101C500010B5FEF777FD4FF48030FEF79AFD0020B7
:101C6000FEF7FCFDFEF7D4FD044600BF3120FEF771
:101C7000B3FD0028FAD0012C34D10020FEF73BFE42
:101C80000020FEF74AFEA002FEF73EFE4020FEF7CF
:101C900003FE4FF4C060FEF708FE04218803FEF740
:101CA000EFFD0120FEF70AFE00BFD448006800F0F7
:101CB00000600028F9D04FF4E0114FF48030FEF7B7
:101CC000D0FD0120FEF7D9FD00BF3920FEF784FDCD
:101CD0000028FAD00220FEF700FE00BFFEF706FE45
:101CE0000828FBD101210420FEF749FF012108202B
:101CF000FEF745FF01211020FEF741FF01212020C2
:101D0000FEF73DFF01214020FEF739FF0121084683
:101D1000FEF735FF0121BA48FEF797FC10BD08B564
:101D2000B848FEF761FB40F2C330ADF80000102068
:101D30008DF8030003208DF802006946B148FEF7D4
:101D4000B3FB2820ADF8000003208DF8020010201E
:101D50008DF803006946AB48FEF7A6FB1020ADF8EE
:101D6000000003208DF8020028208DF8030069464A
:101D7000A448FEF799FB08BD08B5A348FEF734FB5D
:101D80004FF6FF70ADF8000010208DF8030003201F
:101D90008DF8020069469C48FEF786FB08BD08B531
:101DA0009A48FEF721FB0420ADF8000018208DF8BA
:101DB000030003208DF8020069469448FEF774FB87
:101DC0000820ADF8000018208DF8030003208DF8DE
:101DD000020069468D48FEF767FBA020ADF80000C1
:101DE00003208DF8020018208DF80300694687480B
:101DF000FEF75AFB4020ADF8000003208DF80200EA
:101E000048208DF8030069468048FEF74DFB1020FE
:101E1000ADF8000003208DF8020010208DF80300BB
:101E200069467A48FEF740FB4FF40040ADF80000E9
:101E300003208DF8020048208DF80300694673489E
:101E4000FEF732FB08BD08B57148FEF7CDFA042055
:101E5000ADF8000010208DF8030003208DF802007B
:101E600069466B48FEF720FB08BD1FB501214804F9
:101E7000FEF792FE4FF4E13000900020ADF80C0028
:101E80000C20ADF80A000020ADF80800ADF80600FF
:101E9000ADF8040069465F48FFF7C3F801215D48CB
:101EA000FFF74BF91FBD70B50446002504E0802103
:101EB0005848FFF71DFA0546002DF8D02146554831
:101EC000FFF7A8F980215348FFF71FFA70BD10B53E
:101ED000044603E02078FFF7E6FF641C2078002822
:101EE000F8D110BD2DE9F05F04460025002600273B
:101EF000A846A946AA46AB460A2094FBF0F100FB8F
:101F00001145454894FBF0F100FB114042F210717D
:101F100090FBF1F201FB12004FF47A7190FBF1F2A9
:101F200001FB1200642190FBF1F201FB12000A2177
:101F300090FBF1F6384894FBF0F100FB114042F2BF
:101F4000107190FBF1F201FB12004FF47A7190FBDB
:101F5000F1F201FB1200642190FBF1F72E4894FB93
:101F6000F0F100FB114042F2107190FBF1F201FB25
:101F700012004FF47A7190FBF1F8274894FBF0F1CE
:101F800000FB114042F2107190FBF1F9224894FBE2
:101F9000F0FA224894FBF0FB0BF13001C8B2FFF7D6
:101FA00082FF0AF13001C8B2FFF77DFF09F130016D
:101FB000C8B2FFF778FF08F13001C8B2FFF773FF2E
:101FC00007F13001C8B2FFF76EFF06F13001C8B269
:101FD000FFF769FF05F13001C8B2FFF764FFBDE804
:101FE000F09F10B5FFF734FEFFF7D9FEFFF797FE1D
:101FF000FFF7C2FEFFF727FF10BD000000100240F0
:1020000000023000000C01400010014000080140B7
:102010000014014000440040A086010040420F002F
:102020000020FE49C97AFD4A127B01EB0221FC4ADD
:102030001160FA49497BFB4A1160F849897BF74AEC
:10204000D27B01EB0221F84A1160F449097CF74A7E
:102050001160F24991F827100906F04A92F82620FB
:1020600001EB0241ED4A92F8252001EB0221EB4AF7
:1020700092F824201144EE4A1160E849C97F09060C
:10208000E64A927F01EB0241E44A527F01EB0221D2
:10209000E24A127F1144E74A1160E04991F82F109B
:1020A0000906DE4A92F82E2001EB0241DB4A92F843
:1020B0002D2001EB0221D94A92F82C201144DE4A4E
:1020C0001160D9490968DB4A12681144D84A12687C
:1020D000D64B1B6802FB0312D7490968891ED14BF6
:1020E0001B6801FB03207047152101EB4011CB4A0F
:1020F000515C0906142202EB4012C84B9A5C01EBBA
:1021000002411B2202EB40129A5C01EB02211A22CF
:1021100002EB40129A5C1144C84A116011460968EA
:10212000891EC04A1268C64B1B6801FB0231C54AB2
:1021300011601F2101EB4011B84A515C09061E22B3
:1021400002EB4012B54B9A5C01EB02411D2202EBFF
:1021500040129A5C01EB02211C2202EB40129A5CB5
:102160001144B94A116070472DE9F05F05460E46EB
:102170009046022400274FF00009B8F1020F00D169
:102180000024A6493046FFF7D5FBB0480660B048AA
:10219000C0F80080E6E10F2C72DD0024AB48006837
:1021A000401CAA49086008460068801B9D490968D0
:1021B00088427DD1A649D1F800A04FEAEA710AEB26
:1021C0005161994A1268A34B1B681A4402EBE11053
:1021D000A149FFF7AFFBDFF878C2DCF800304FEA27
:1021E000E37C03EB5C6C4FEAEC1CA3EBCC1C4FEAEA
:1021F0008C0C0CF1030CDFF860A21AF80CC0BCF1D7
:102200000F0F3ED1DFF848C2DCF800204FEAE27C35
:1022100002EB5C6C4FEAEC1CA2EBCC1C4FEA8C0C82
:102220000CF1020C1AF80CC0BCF1FF0F29D1DFF839
:1022300020C2DCF800104FEAE17C01EB5C6C4FEA55
:10224000EC1CA1EBCC1C4FEA8C0C0CF1010C1AF825
:102250000CC0BCF1FF0F14D1DFF8F4C1DCF80000B2
:102260004FEAE07C00EB5C6C4FEAEC1CA0EBCC1C72
:102270001AF82CC0BCF1FF0F03D10120BDE8F09F7C
:1022800064E0DFF8CCC1DCF800304FEAE37C03EB1C
:102290005C6C4FEAEC1CA3EBCC1C4FEA8C0C0CF1F1
:1022A000030CDFF8B4A11AF80CC04FEA0C6A00E086
:1022B00047E0DFF89CC1DCF800204FEAE27C02EB4B
:1022C0005C6C4FEAEC1CA2EBCC1C4FEA8C0C0CF1C2
:1022D000020CDFF884B11BF80CC00AEB0C4ADFF8E3
:1022E00070C1DCF800104FEAE17C01EB5C6C4FEA56
:1022F000EC1CA1EBCC1C4FEA8C0C0CF1010C1BF874
:102300000CC00AEB0C2CDFF848A1DAF800004FEA09
:10231000E07A00EB5A6A4FEAEA1AA0EBCA1A1BF8F5
:102320002AA0D444DFF828A1CAF800C050460068AB
:10233000801E3C490968424A126800FB0126434856
:102340000660364941480068FFF7F4FA002000EBC8
:1023500044103249085C80B9012000EB4410085C4D
:1023600058B9022000EB4410085C30B9032000EBA0
:102370004410085C08B9012080E72046FFF7B4FE4E
:1023800031480068002869D0082000EB4410234938
:10239000085C4D280BD1092000EB4410085C502844
:1023A00005D10A2000EB4410085C3328EBD008204C
:1023B00000EB44101949085C57280BD1092000EBA9
:1023C0004410085C4D2805D10A2000EB4410085C3D
:1023D000412843D0082000EB44101049085C4D28E8
:1023E0000BD1092000EB4410085C492805D10A20D4
:1023F00000EB4410085C442830D0082000EB441067
:102400000649085C57282DD1092000EB4410085CD0
:10241000412827D10A2000EB441020E0D83C0020BE
:1024200094000020980000209C000020A0000020C4
:10243000A4000020A8000020B0000020B800002068
:10244000AC000020C0000020C8000020D000002008
:10245000BC000020D4000020D83E002061E0085CD1
:1024600056285ED0082000EB4410C749085C462877
:102470000BD1092000EB4410085C4C2805D10A2040
:1024800000EB4410085C41284BD0082000EB4410BE
:10249000BD49085C54280BD1092000EB4410085CAE
:1024A000582805D10A2000EB4410085C542838D085
:1024B000082000EB4410B449085C42280BD10920E5
:1024C00000EB4410085C492805D10A2000EB4410B9
:1024D000085C4E2825D0082000EB4410AA49085C6F
:1024E00020280BD1092000EB4410085C202805D1DE
:1024F0000A2000EB4410085C202812D0082000EBD2
:102500004410A149085C4F282AD1092000EB44104F
:10251000085C472824D10A2000EB4410085C4728B7
:102520001ED1002000EB44109749085CE52817D025
:10253000002705E007EB44109349085CE8557F1C31
:102540000B2FF7DB914800686861914800682861AB
:1025500090480068A861C5F81C9009F10109203570
:10256000601CC4B217E62DE9F041002500260024C6
:10257000002785494FF40050FFF7DCF907468648ED
:10258000FEF722FFFFF74CFD05468448B0F9000036
:10259000C0EBC000824901EB8000056102207F4949
:1025A000B1F90010C1EBC1017D4A02EB8101C860A5
:1025B00000207A49B1F90010C1EBC10102EB8101A1
:1025C00048617649B1F90010C1EBC10102EB81010C
:1025D000886172480088401C00B2704908806E48CB
:1025E000FEF7F2FE6D49B1F90010491EC1EBC101C1
:1025F0006B4A02EB810108696349FFF79BF90020F0
:1026000068490880B8E000240FE06648B0F900008F
:1026100004EB40105C49085C6349624AB2F900204F
:1026200001EB42110855601CC4B2072CEDDD0824F3
:1026300012E05C48B0F9000004EB401052490A5C1B
:1026400059485849B1F9001000EB41100C30A4F181
:1026500008014254601CC4B20A2CEADD5148B0F9AA
:102660000000012101EB4000052101EB001046496B
:10267000085C01064B48B0F90000012202EB400063
:10268000042202EB0010404A105C01EB0041454877
:10269000B0F90000012202EB40000B2202EB001017
:1026A000394A105C01EB00213E48B0F900000122DC
:1026B00002EB40000A2202EB0010334A105C0E18B5
:1026C0003A4909683A4A12683A4B1B6802FB0312FE
:1026D000B11E394B1B6801FB0321384A1268514374
:1026E00001F58000C11700EBD1514A122E492D4B44
:1026F000B3F9003001EB43114A612A48B0F90000F8
:10270000012101EB40000F2101EB00101E49085C84
:1027100001062448B0F90000012202EB40000E221D
:1027200002EB0010184A105C01EB00411D48B0F9A3
:102730000000012202EB40000D2202EB0010124AC1
:10274000105C01EB00211748B0F90000012202EBF8
:1027500040000C2202EB00100B4A105C08441249A6
:10276000104AB2F9002001EB421188610D4800883F
:10277000401C00B20B4908800A48B0F90000FF284D
:102780007FF741AFBDE8F081D83C0020C0000020B9
:10279000B8000020C8000020E09304002E000020B4
:1027A000D800002028000020D81C00209C00002019
:1027B000A4000020A0000020980000209400002029
:1027C00010B5044600BF0221FB48FEF7ADFB002810
:1027D000F9D02146F848FEF754FB00BF0121F64826
:1027E000FEF7A2FB0028F9D0F348FEF74CFBC0B27D
:1027F00010BD10B5044600BF0221EF48FEF794FB60
:102800000028F9D02146EC48FEF73BFB00BF012130
:10281000E948FEF789FB0028F9D0E748FEF733FBCB
:10282000C0B210BD10B504462046FFF7C9FF10BD69
:1028300010B50446E04800884FF6C7710840DE49ED
:10284000088008460088204308800121DA48FEF706
:10285000E7FA10BD10B52020FFF7EAFF10BD10B554
:102860001020FFF7E5FF10BD00B587B001210C2057
:10287000FEF785F94FF40060ADF8040048208DF8AC
:10288000070003208DF8060001A9CC48FDF70CFED7
:102890004FF48060ADF8040010208DF8070001A906
:1028A000C648FDF701FE01218803FEF775F94FF4D4
:1028B0006040ADF8040003208DF8060018208DF864
:1028C000070001A9BD48FDF7EFFD4FF48050ADF8BA
:1028D000040010208DF8070001A9B848FDF7E4FDB9
:1028E0004FF48070ADF8040010208DF8070001A9A6
:1028F000B348FDF7D9FD0020ADF808004FF4827011
:10290000ADF80A000020ADF80C000220ADF80E0072
:102910000120ADF810004002ADF812003820ADF8EB
:1029200014000020ADF816000720ADF8180002A929
:10293000A148FEF7AFF901219F48FEF771FAFF2089
:10294000FFF73EFF07B000BD70B505460C4600BF5F
:102950004FF400619948FDF73AFE0028F8D0FFF7E0
:1029600079FF4FF480719648FDF74BFE4FF480518C
:102970009248FDF748FE0220FFF754FF2846FFF774
:1029800051FF2012FFF74EFFE0B2FFF74BFF4FF46D
:1029900080518A48FDF735FEFFF761FF70BD70B5C5
:1029A0000546002400BF4FF400618448FDF70FFE88
:1029B0000028F8D0FFF74EFF4FF480718048FDF7F4
:1029C00020FE4FF480517D48FDF71DFE0320FFF7E8
:1029D00029FF2846FFF726FFFF20FFF723FF0446C5
:1029E0004FF6FF7000EA0424FF20FFF71BFF20448E
:1029F00084B24FF480517148FDF703FEFFF72FFFBB
:102A0000204670BD10B5002400BF4FF400616B4834
:102A1000FDF7DDFD0028F8D0FF20FFF703FF0024BD
:102A20000EE040F604010020FFF78EFF4FF4FA603D
:102A3000FEF7CAFC2046611CCCB2642800DD05E02C
:102A40000020FFF7ACFFB0F5006FEAD100BF00BF78
:102A50004FF400615948FDF7BAFD0028F8D0002472
:102A60000AE04FF418410320FFF76EFF2046611C77
:102A7000CCB2642800DD05E00320FFF790FFB0F53D
:102A8000184FEED100BF44F62060FEF79DFC10BD4C
:102A900010B500244FF480614848FDF7B4FD44F6BA
:102AA0002060FEF791FC4FF480714548FDF7A9FDC9
:102AB0004FF480514148FDF7A4FD4FF480613F4839
:102AC000FDF79FFD04E0601CC4B23220FEF77CFCE1
:102AD0004FF400613948FDF77AFD08B9C82CF2DBE4
:102AE00044F62060FEF770FCC82C01DB012010BD0D
:102AF0000020FCE710B5FFF7CBFF42F220010B20CE
:102B0000FFF722FF4FF402610020FFF71DFF00BF17
:102B10004FF400612948FDF75AFD0028F8D0FFF76F
:102B200099FE4FF480712648FDF76DFD5320FFF7A5
:102B300079FEEF20FFF776FE6E20FFF773FE24206C
:102B4000FFF770FE0020FFF76DFE0020FFF76AFE22
:102B50000020FFF767FE0020FFF764FE1948FEF72C
:102B600033FC4FF480711648FDF74BFD4FF4807134
:102B70001348FDF748FD4520FFF754FE7820FFF786
:102B800051FE6920FFF74EFE7420FFF74BFE002038
:102B9000FFF748FE0020FFF745FE0020FFF742FE4A
:102BA0000020FFF73FFE0748FEF70EFC4FF4807150
:102BB0000348FDF726FD10BD00380040000C014021
:102BC00000080140A086010010B5FFF761FF4FF437
:102BD00002610020FFF7B8FE00BF4FF40061F74824
:102BE000FDF7F5FC0028F8D0FFF734FE4FF48071B4
:102BF000F348FDF708FD4D20FFF714FEEA20FFF72C
:102C000011FE6D20FFF70EFE5420FFF70BFE002093
:102C1000FFF708FE0020FFF705FE0020FFF702FE89
:102C20000020FFF7FFFDE748FEF7CEFB4FF4807171
:102C3000E348FDF7E6FC0820FFF7B1FE10BD10B534
:102C40000446FFF70CFE4FF48071DD48FDF7DBFC16
:102C50002046FFF7E7FD4FF48071D948FDF7D1FC1E
:102C600010BD70B5044621460720FFF76DFE062013
:102C7000FFF795FE0546284670BD70B504460D4623
:102C800021460720FFF760FE00BF4FF40061CB48EC
:102C9000FDF79DFC0028F8D029460620FFF754FEDA
:102CA00070BD10B50446214641F60460FFF7E5FF0C
:102CB00010BD70B50820FFF772FE05460920FFF72A
:102CC0006EFE044644F66771601A8C421DD00DDC1E
:102CD000A4F58040A0F5A270A8B1102812D0B0F5DC
:102CE0003F6F11D0B0F5416F27D10AE0A0F2E67036
:102CF00060B1A0F6FF6050B1A0F580501938E0B97E
:102D000000BF00BF00BF00BF00BF00BF00BF680022
:102D10001921B0FBF1F40A20B4FBF0F100FB1140E3
:102D2000052805D90A20B4FBF0F0401C80B270BD24
:102D30000A20B4FBF0F080B2F9E7E40804F00304E1
:102D4000032C01D1012400E000249F4800EB441033
:102D5000290B30F81100EAE710B541F60560FFF7DE
:102D600080FF10BD10B541F60660FFF77AFF10BD79
:102D700070B505464FF400619048FDF728FCE8B1B6
:102D80004FF480718E48FDF73EFC4FF480518B4824
:102D9000FDF737FC002404E0285DFFF743FD601CCD
:102DA000C4B2202CF8DB4FF480718548FDF729FC74
:102DB0004FF480518148FDF726FC01E0012070BDF1
:102DC0000020FCE770B588B0002604E000200DF874
:102DD0000600701CC6B2202EF8DB0020FFF7DFFDD6
:102DE000044644F0080444F0040421460020FFF7A0
:102DF000ABFD00250EE06846FFF7BAFF50B905F1BC
:102E0000200085B20020FFF7CAFD044604F0080048
:102E100000B902E0B5F5006FEDDB00BFB5F5006F5E
:102E200019DAFFF79FFFC4B2002604E0E0B20DF804
:102E30000600701CC6B2202EF8DB002506E06846AE
:102E4000FFF796FF10B905F1200085B240F60400A7
:102E50008542F4DB01E0FFF7D5FD0820FFF79FFD79
:102E600004460920FFF79BFD204484B21CB1FFF704
:102E70000FFEFFF7C7FD08B070BD2DE9F04704460F
:102E8000884600252DE02846691C8DB234F8107064
:102E90002846691C8DB234F8106006F4004088B1F1
:102EA000C6F30E062846691C8DB234F8109003E074
:102EB000F8B24946FFF748FD3000A6F101018EB295
:102EC0000FD0F5E708E02846691C8DB234F8109061
:102ED000F8B24946FFF738FD3000A6F101018EB285
:102EE000F1D14545CFDBBDE8F08710B500210420C6
:102EF000FFF72AFD00210420FFF726FD41F239519A
:102F00003248FFF7BAFF10BD10B500240420FFF7C8
:102F100046FD0446204610BD70B505460024C5F1A7
:102F2000FE0084B24FF6FF7000EA0424C5F1FE00F3
:102F3000204484B221460B20FFF706FD70BD2DE929
:102F4000F04706460F4690461D460024A14605B9A7
:102F50000AE0082D04DDA5F108004FFA80F903E02E
:102F6000A5F109004FFA80F909F00F044FF6FF7040
:102F700000EA041408F00F0004444FF6FF7000EA62
:102F8000041407F00F0004444FF6FF7000EA041425
:102F900006F00F00204484B221460220FFF7D4FC43
:102FA000BDE8F08770B505460020FFF7F8FC044641
:102FB00005F0010060B144F010040BE0000C01408A
:102FC00000080140F0490200985C00082632000821
:102FD00024F0200405F0020010B144F0800401E068
:102FE00024F0800421460020FFF7AEFC70BD10B530
:102FF000DC20FFF791FF0F230A2219460620FFF776
:103000009EFF0020FFF7CEFF10BD10B54FF480618A
:103010006948FDF7F8FA47F23050FEF7D5F94FF45A
:1030200080616548FDF7EDFA47F23050FEF7CCF9C4
:10303000FFF710FC40F604010020FFF785FC1E207E
:10304000FEF7C2F94FF418410320FFF77DFC1E2064
:10305000FEF7BAF947F6F6210220FFF775FC1E20AD
:10306000FEF7B2F944F240010B20FFF76DFC1E2081
:10307000FEF7AAF9FFF7F3FB4FF480714F48FDF715
:10308000C2FAFF20FFF7CEFBFF20FFF7CBFBFF20AC
:10309000FFF7C8FBFF20FFF7C5FB4FF480714748DF
:1030A000FDF7AFFA10BDF0B5ADF5017D06460D4652
:1030B000002700244FF4007101A800F088F800BF39
:1030C0001FE04FF480713D48FDF79DFA4FF48051A9
:1030D0003948FDF796FA00BF4FF400613648FDF716
:1030E00076FA0028F8D00020FFF783FB4FF48071B8
:1030F0003248FDF786FA4FF480512F48FDF783FAE6
:10310000641CB4F5006FDCDB00272BE001A9284626
:10311000FEF710FC4FF480712848FDF774FA4FF465
:1031200080512548FDF76DFA00240CE000BF4FF4F4
:1031300000612148FDF74BFA0028F8D001A9085D8D
:10314000FFF757FB641CB4F5007FEFDB4FF4807191
:103150001A48FDF756FA4FF480511748FDF753FA15
:103160006D1C7F1CB742D1DB00241FE04FF480713F
:103170001248FDF748FA4FF480510F48FDF741FA25
:1031800000BF4FF400610C48FDF721FA0028F8D089
:103190000020FFF72EFB4FF480710848FDF731FA4D
:1031A0004FF480510448FDF72EFA641CB4F5006F0B
:1031B000DCDB0DF5017DF0BD000C01400008014095
:1031C000D2B201E000F8012B491EFBD27047002269
:1031D000F6E710B513460A4604461946FFF7F0FF16
:1031E000204610BD064C074D06E0E06840F00103A4
:1031F00094E8070098471034AC42F6D3FCF7ACFFD4
:10320000D85C0008F85C000802E008C8121F08C17A
:10321000002AFAD170477047002001E001C1121F57
:10322000002AFBD17047070001000083060002025C
:1032300080B0240007005792003F2400300097021E
:10324000003F240006001700103F2400003F240028
:103250000000D7F800F4C0550000170800F4C0576C
:1032600000004D000A008F7000004EC40F2800E1DE
:103270000600162000008D021400011B002895C7CF
:103280001500C05900000DFA39004F3200000ED46D
:103290002029C041000024000A008F7000004EC4A5
:1032A0000A28C0CA00008D02C26F240019000193D1
:1032B0000028D5CB1800C0500C0081090000C218AE
:1032C0000C294048133624000C29404886404C18ED
:1032D0003462240000002400002855CB300017037E
:1032E000003F24000A28C0712C00409DC26F2400BA
:1032F00000002400002855CB000024000028409C3A
:103300000A00C8CA13362400103E03B8143E113810
:10331000113E0538003E0138070090C3060011A099
:1033200010304404503005445864020394FF814037
:103330000300C5FFB648240082FF2400B2424200C9
:1033400058B40300D64C019848F2C01B8AB524003B
:10335000E66D0418060010001038C59B003824C024
:10336000F4361118F03603983E28802DFF0FC3FF66
:103370003E004F2D002880E500004ECD1334240080
:10338000002805D600F410450028C0D99468CC1355
:1033900000304C189060CC93B03812380430244080
:1033A00000001009833124000031244016602400FD
:1033B0000C001280002811D984B84C109468023097
:1033C0003929C0B0103ECC938440D29B8242240065
:1033D000000041000028C5DB12622400000040000C
:1033E0000028C5E00C009083002A40E4C334240088
:1033F000443424007330240053302400003024006F
:1034000092608C0900004102002845E4A0322400AB
:103410001260240000002400002855E4000024006D
:1034200013362400013044382029800509305238F1
:1034300090C0D29B002840E40038C41B0C0013410C
:1034400080B88023043324400038CC0592CCCC05CE
:1034500010392400103924400C0010811039240048
:10346000F039244010382400D0382440103824008B
:10347000F0382440C3342400443424007330240042
:103480006330240000302400804024000000240029
:103490003928D5538442240013362400002885E7B8
:1034A000986804B8000084003B29C01C133624002F
:1034B0000C00178111372400D13724408A4E240094
:1034C00000001500002845EA9ACE2400113F240090
:1034D000013F24400C0097818A40C49B153F244043
:1034E000002885EC8442153C9065240000002400EF
:1034F0003928D55384422400000024000028D8D461
:103500008A452400392AC05309305138143E12F834
:10351000123E17B8060057A0113ED39F2300D2FFDA
:10352000013E240006001100113124009864C607F2
:103530008C8644240139068E300051051139068EDF
:103540006139449C00F4C6446CD4C41BF13613BCEE
:10355000002815F8F23617982B00D2FF83338C1809
:10356000013E068C060097A08C4617BC00F49741DC
:10357000002804F513372400002845F5E33724001C
:103580000930172C833324000930060C8C469741F0
:10359000060052A0002844F713371328002885F7A7
:1035A000E33724000930172CF1362480F2361798BF
:1035B000F43612D8002100000439D15B002A8EEDC8
:1035C000113E047830005702013724001300054DE6
:1035D0005BD4E1E0070095C7002895FFFF0F45FF8A
:1035E00011354C18884408B80600978A002845FF12
:1035F0000930401C1135C11F0000200052AC0514D9
:10360000E26C240000002400002841FFC26824006E
:103610001A29408A103E2400212980CA003E2440F5
:10362000F33624000930C81BF0360118082800932F
:1036300001360458070001002E8006000200002811
:1036400000F907000100508006002800123E0038F3
:10365000112940F1103E248000F495459335240053
:10366000F3352400003524002100826D24D0C044AD
:10367000060002A40028151824D024000000000031
:10368000002815180B00576D0930003CF0362480D7
:10369000F23600180020000000002400070001009E
:1036A000308006000200002800140700010064803A
:1036B00006001C00123E17B8143E12F8013E11B865
:1036C000070017972000D2FF3000D111113124805C
:1036D000043724C0813B248001312480813B248035
:1036E000043F24C008280048F13611980700010063
:1036F000288006000200002A0E19070001007280CF
:103700000600520013362400123E17B8123E153838
:10371000053E14B83536240000000A80103E0278B9
:10372000143E2400002980B60000010200000106BA
:1037300013344C1802290047F03C240013344C1871
:10374000003440300930C1330000C11F10B02400E4
:10375000146040900600D00B002855230000240080
:10376000E334CC1B906824000028002580B800209A
:10377000103E811302294086003E24403F0041FE56
:10378000E3364C10F034240010A02400F43624005A
:10379000F036025805341490F3362400F23615182A
:1037A00000200000F2361798070001009B800600F9
:1037B0004A0013362400123E17B8123E1538053E53
:1037C00014B81536240000000A80103E04B8013EEB
:1037D0004C538ABEC0108040240000002400002802
:1037E000452E000024000229004782404C188A4CD4
:1037F0004C13000001009068C2109442240022ACD7
:103800002400C2BE2400000024000028452E000031
:10381000240090684C1382B8C21022AC2400924C51
:10382000240092DC2400CACE2400824EC51BF03650
:10383000049805341490F3362400F236151800204D
:103840000000F236179807000100C0800600E4006F
:1038500013362400123E17B8123E1538053E14B830
:103860004536240000000A80103E0138103E03B89F
:10387000113E0538113E07B8143E4C10002980B6A1
:1038800000008100804040300000010100288535A3
:103890000000240090408C130600100C002895496D
:1038A0000000240023342400002980B613362400AD
:1038B00080B800300028404709308033002980B6A6
:1038C0002241CC10F03C24000130240000342400BC
:1038D0000068240008A44090804024000000C10734
:1038E0000028153B9468801394680C1360342400FE
:1038F000086481440241801300F452400000C10773
:10390000F03424C0346224002468240022A124005E
:10391000146024000000410100281542000024002A
:10392000002980B613362400002880408AB802405F
:103930000029C026003E24808E4C01A80000010210
:10394000103ACC1B0030240010B0240000002400EA
:10395000002815469A65240040654C183000100078
:103960000028083E0000240000280046F33624000A
:103970000028C0448AB824000229800ED034244094
:103980008F4CA1A00000010200304C0810B02400B0
:1039900000002400002815469A6524004065CC10DC
:1039A000300010000028884200002400D334240096
:1039B0002334240000F41045093080139060240063
:1039C0000930002092688C10F034009022A14C98AD
:1039D0001660C113000002010028C8360600100D51
:1039E0000028004A0930CC1B9068240000382400CD
:1039F000F4362400F1360798F1360518F0360398AE
:103A0000F036011805341490F3362400F2361518F8
:103A100000200000F23617980700010032810600EE
:103A2000480013362400123E17B8123E1538053EE2
:103A300014B81536240000000A80103E0138103EEC
:103A400004B8113E07B8143E1138043E4C9330348C
:103A500024008040240000000602002805530600D0
:103A6000110D01310C130CFF0211086424000442F3
:103A7000240082B892400610020EBE482400644220
:103A80002400012900FA00F49040F4362480F43632
:103A90001118F1360798F0360498F03601180534FD
:103AA0001490F3362400F236151800200000F23688
:103AB0001798070001000218060002009401AF01E8
:103AC00006000680F60106002500CB01CB01CB01E4
:103AD000CB01CB018105650569056D05710575058E
:103AE00079057D05B305B705BA05BA05BA05BA0566
:103AF000C205D605A5060E06130619061F062406DE
:103B000029062E06330638063D064206470661069C
:103B10008106A10607000100568106003602133611
:103B20002400123E17B8123E1538053E14B87536FB
:103B300024003336240000000A80103E01380000C3
:103B40008101103E03B8113E0638113E10F8143EB4
:103B50001278133E0EF802294018033E2440002933
:103B600080B688404C1813344C18002980B69268EF
:103B7000C03323342400804040300000000000287F
:103B8000C560000024009068240002294018D03C41
:103B9000240080402400000024000028156100005B
:103BA00024003334240000F41045D0342400906005
:103BB000240002294018003824008040CC1000F472
:103BC00010450028855ED0342400002800610000E4
:103BD0002400D03C240033342400A034240000F41A
:103BE0001045303424400061240000004103403877
:103BF0002400003024001260240006008100002808
:103C0000817D1240240000F4574002372400002038
:103C1000000000002400D3344C18303424800029E4
:103C2000C026003E2480F336CC1188B84C10103CDE
:103C30002400903C24400028C069E3342400824FD3
:103C40008C12003424404241240000F450400038DB
:103C500024004034244042412400986450400930FC
:103C600007200600100D0030CC1102644C101134F6
:103C7000248000288867913424C000284099E334C8
:103C800024000028C07088B824000029C026003E07
:103C900024808E4C0C130034CC5B4241240000F491
:103CA000504000382400403424404241240000F4B5
:103CB00050400000010209300720300010000030A1
:103CC000240010B0240000002400002855999864B6
:103CD00024000600100D00304C130264C2100000D6
:103CE00024000028486C09304C18002840990930FD
:103CF000CC1B0000010288B84C1030344C18106006
:103D000024000264003000000102002858793000CD
:103D1000100090404C120024407800002400303401
:103D200024800029C026003E24808E4C0C130034D1
:103D300024404241240000F4504000382400103454
:103D4000244042412400986450400930072030004C
:103D50001000000001027334240090342400003E5F
:103D6000CC1300290030443424800030CC1B10B028
:103D70002400000024000028559900002400C334CA
:103D80004C1870342400103E4C10C03424400029DC
:103D9000804C003E244000284099E3362400000077
:103DA000010813342400F0342400126024000000C1
:103DB000C107002888980000240010604C1188B8C2
:103DC000C0320264240000000101002818850000B0
:103DD000240090404C130024408409304C183034A7
:103DE00024800029C026003E24808E4C0C13003411
:103DF00024404241240000F4504000382400103494
:103E000024404241240098645040093007200000BB
:103E100001013334CC1B002980B613362400000086
:103E2000410190608C11002980B6A03C4C1873347D
:103E30004C1888B880330034240002642400000049
:103E400001020028D88B0000240090404C10002470
:103E5000008B00002400A03424800029C026003EEE
:103E600024800600020044428C11444224009864DD
:103E70009540093040340930C13700000102F33465
:103E800024003000100090342400003E8C130029E0
:103E90000030443424800030CC1B10B024000000DB
:103EA0002400002855991241240063342400A034D2
:103EB0002400126024000600D10C0028199500008F
:103EC00024000031CC119034244010402400000024
:103ED000010A126024000600110D00281895000048
:103EE000240013364C1101310438903424802864A6
:103EF0008C137034248023342400203424C03442B2
:103F0000411280439240012900FA06001000002867
:103F100040990930CC1B0600110D13364C110131AC
:103F200004389034248028648C1370342480233423
:103F30002400203424C0344241128043924002299C
:103F4000C00306001000002840990930CC1B060071
:103F5000100C9068240000382400F3362440F33617
:103F60000ED8F4361258F13610D8F1360618F0365D
:103F70000398F036011805341490F3362400F23615
:103F8000151800200000F236179807000100018480
:103F900006006E0113362400123E17B8123E153883
:103FA000053E14B81536240000000A80103E027841
:103FB000103E04F80000C33F113E0678113E10F891
:103FC00082BCCC1204342400233024001038240096
:103FD000F03824405434240010382400F0382440B1
:103FE000002980B6000001020600818088404C1341
:103FF0000034248004D2240034B22400224124005E
:1040000000F4554000352400303C2400000000201E
:1040100000B42400000001300128D50A0000003857
:104020000000410042FECC12B2489010103824002B
:10403000F03824400128C02B3034240000B4240080
:1040400012602400000001380128150E0000003C19
:104050000000C0070000410000B4CC1202FE501165
:10406000B24824009A6840200128402AF0382440B1
:1040700000B42400126024000000013C01289511C6
:104080000000003E0000C003000085009245CC12F5
:1040900000B4501102FE2400B2482400103824005D
:1040A0000128402AF038244000B424001260240083
:1040B0000000013E012815150000003F0000C0016E
:1040C0000AF2CC1200B4501152F2240002FE240075
:1040D000B2482400103824000128402AF038244037
:1040E00000B40C13126024000000013F0128951851
:1040F0009043240000004100000005019045CC13CE
:1041000000B4501102FE2400B248240010382400EC
:104110000128402AF038244000B424001260001125
:104120000000C1010128151C00002400000041000E
:10413000000045019068CC1200B4501102FE24002A
:10414000B2482400103824000128402AF0382440C6
:10415000126024000000813F0128951E30B4240025
:1041600012602400000024000128951E0000240095
:104170000128402A000085010128C02B90C8240096
:104180000000C33F00000102002980B6133624005E
:104190000600818088404C130034248004D224001F
:1041A00034B224002241240000F4554000000120D4
:1041B00000352400303C24000000003000B424000E
:1041C00012602400000082010128852400002400E0
:1041D0000128C02B90C824009A45CC120434240036
:1041E0002330240010302400D030244022AC46007C
:1041F0003F0082F9113024C0000023002EAF2400BC
:1042000000008201F2CC24000000C60F000047002D
:104210006CB440206EFEC1235434240010302400BE
:10422000F030244022AC2400B2CC2400103824000A
:10423000F03824408A452400000001020128951F1F
:104240000000C33FD334240030342400F13610D8AA
:10425000F1360658F03604D8F0360258053414907A
:10426000F3362400F236151800200000F2361798B5
:1042700007000100B8840600600613362400123ED1
:1042800017B800001704123E1538053E14B88536DD
:10429000240000000A80103E0138103E03B8113E91
:1042A0000538113E07B8143E1138143E13B8133EBA
:1042B0000EF8033E244002298079000081030F009C
:1042C00081FF126024000000010201284534000033
:1042D000240013362400002980B60100C8F6060029
:1042E000108A80B84C180229C057003ECC11733494
:1042F0002400903C240093342400002980B6000060
:10430000010473344C1823342400503C00008040D6
:104310002400060081800128C53A3F0004FEB33422
:1043200024009034248044A28C130229C05280B807
:10433000240082404C18060081800229C057003EAC
:10434000CC11733424000600510CB03424800034A6
:1043500024C046A3240034D224000000C33F34B25A
:1043600024002241421100F45540060081800035AE
:10437000240024D0003034B224002241240000F470
:1043800055400000410000352400B03C240090342A
:10439000240000F1CC1300F1240002FE2400B248F6
:1043A0002400103C24009268C131A034240000F1A4
:1043B000240010B02400603C2400B034240010B06D
:1043C000240000000102002980B6C03C2400060041
:1043D000818073344C1823342400503C2400B034C2
:1043E0002480503424C034D224000000C33F34B2AF
:1043F00024002241240000F455403F0001FF003515
:104400002400B03C2400C034240010A0240000008C
:10441000C103403C2400D034240010B0240000002C
:104420000102002980B6A03C24000600818073347C
:10443000240023342400503C2400B0342480503421
:1044400024C034D224000000C33F34B224002241EF
:10445000240000F455403F0001FF00352400B03C2B
:1044600024000034240010A024000000C101003901
:104470002400E034240000F1240010B024009268ED
:104480008030F034240010B02400B03C24005034BC
:1044900024009034244010C0CC93000081010128F6
:1044A0008551003124009068CC070128C0F60039FE
:1044B00024001260240000000102012818530000AB
:1044C00024000128005690604C0412602400000073
:1044D0008102012848551260240000008000012854
:1044E000595500002400012800561331240090681B
:1044F000CC070128C0F60039240000000102003971
:10450000CC1190342400126024000600C10301285D
:1045100041601240240000F457400237240000207C
:10452000000000002400012840600000240000007A
:1045300000020600D00C0128406000382400000072
:1045400000030600D00C012840600038240006005B
:10455000100C906824000128C0F6003824000000E8
:1045600000040600D00C0128406000382400000040
:1045700000050600D00C012840600038240000002F
:1045800000060600D00C0128406000382400060018
:10459000100C906824000128C0F6003824000000A8
:1045A000810243344C18C03424008040240000F4BD
:1045B0000045012805661040CC91103ECC1100004A
:1045C000C001103E24009034240001294000003E28
:1045D0004C12D336CC1173342400804040329334D3
:1045E00024000128186A000024000600D00B9068FF
:1045F00024000128C0F600382400103ECC11000031
:104600008001103E24009034240001294000003E27
:104610004C12D336CC117334240080404032933492
:1046200024000128186A000024000600D00B9068BE
:1046300024000128C0F60038240000000102533491
:104640002400B0342400126024000600C1050128B3
:10465000817C1240240000F45740023724000020DF
:104660000000000024000600100C906824000128BF
:10467000C0F600382400000000300128407E06000B
:10468000100D000000900600100D53342400B034CB
:10469000244092412400924124000128407E10A031
:1046A0002400000001020600100D002980B6133618
:1046B0002400060081807334240023342400503CFD
:1046C0002400B0342480503424C034D224000000AC
:1046D000C33F34B224002241240000F45540003589
:1046E0002400B03C2400903424000128407E9060D7
:1046F0008C133F0004FE000001040600100D002989
:1047000080B61336240006008180733424002334DD
:104710002400503C2400B0342480003424C046A33C
:10472000240034D224000000C33F34B224002241CC
:10473000421100F45540060081800035240024D049
:10474000003034B224002241240000F455400035EA
:104750002400B03C2400903424000128407E906066
:104760008C1300000040000002020600100D5334BC
:104770002400B03424402261240010A0240004004E
:10478000018000388C110600100D003024001260EA
:1047900080120000010401280981000024009068B3
:1047A000CC820128C0F600382400126024000600E4
:1047B000C107012841A91240240000F457400237E4
:1047C00024000020000000002400012840A900006F
:1047D0002400160000220600500D92684020012897
:1047E00040A9F03824402C0000440000810006005D
:1047F000500D10382400012840A9F03824403B0017
:104800000080000081000600500D103824000128AF
:1048100040A9F0382440070000D00600500D82B8AF
:104820004020012840A9F03824400F0000A00600D5
:10483000500D82B84020012840A9F03824401500CE
:1048400080880600500D82B84020012840A9F03829
:104850002440170000700600500D82B84020012847
:1048600040A9F03824401F0000400600500D82B8D7
:104870004020012840A9F03824402B0000110600F8
:10488000500D82B84020012840A9F03824402E0065
:1048900000E00600500D82B84020012840A9F03801
:1048A00024401D0000C00600500D926840200128E1
:1048B00040A9F03824400600500D0000010200001D
:1048C00004FA002980B613362400060081808AB8D5
:1048D000CC1123342400503C2400B03424805034C4
:1048E00024C034D224000000C33F34B2240022414B
:1048F000240000F4554000352400B03C24009034DE
:10490000240050FE0540B2488C93CAFE2400B240F9
:10491000240010382400012840A9F03824403F002A
:1049200004FE000001040600500D002980B6133675
:104930002400060081807334240023342400503C7A
:104940002400B0342480003424C046A3240034D290
:1049500024000000C33F34B224002241421100F47D
:104960005540060081800035240024D0003034B248
:1049700024002241240000F455400000410000358D
:104980002400B03C24009034240002FE8C93B248F2
:10499000240010382400012840A9F03824403F00AA
:1049A00004FE000001040600500D002980B61336F5
:1049B0002400060081807334240023342400503CFA
:1049C0002400B0342480003424C046A3240034D210
:1049D00024000000C33F34B224002241421100F4FD
:1049E0005540060081800035240024D0003034B2C8
:1049F00024002241240000F4554000352400B03C3E
:104A00002400000080029034244002FE8C93B248BF
:104A1000240010382400012840A9F0382440060062
:104A2000D00B906824000128C0F600382400000054
:104A30000102002980B61336CC1123342400503CE7
:104A400024009034244014604C120000810001289E
:104A5000C5AC0600900C0600D00B9068240001281D
:104A6000C0F600382400003024001260240000004A
:104A700041020128C9AE0000240090684C030128BF
:104A8000C0F6003824000600D00CE1304C1800308D
:104A9000240012602400080001000128D5B00000A5
:104AA000240098642400103E244000008100002966
:104AB0008055013E2400E3364C0000302400126093
:104AC00024000B001180012895BC0600D20C0000C8
:104AD00001020400100015290083010000000B00F2
:104AE0001180050010001F29C0C60100000006004B
:104AF000D00CE130240000302400126024000000BB
:104B00008102012805B8126024000B0001800128F1
:104B100095B813362400F33624000B000180986406
:104B20004C180600D20C03000080103E24400029DF
:104B30008055013E2400F336240009304438103EED
:104B40002400000000040030248008001000003E13
:104B5000248001322400086451400229002701000A
:104B600048BF000000040000110013368C00D03054
:104B70004478103E24400030248008001000003E9D
:104B80002480013224000229002708642400060042
:104B9000108A0000C101E336000010B0C49B000081
:104BA0002400012805C392612400002980B6026117
:104BB0004C188840240000002400012805C3000090
:104BC000240090684C0B003A24000930000080401B
:104BD0002400000024000229455B010008C80600EB
:104BE000929F000003400930110800312480A6FF85
:104BF0002400B64824000229405B84432400022993
:104C0000C0521336240082404C180229C057003E7F
:104C100024000229405BF3362400000001047334B1
:104C20004C1823342400002980B6503C2400903CCA
:104C300024000B2900149334240080402400000039
:104C40002400012855F30000240073342400233489
:104C50002400503424009034244014604C13060087
:104C6000D10B0128C5CDC034240090682400012850
:104C7000C0F600392400804012450600110D0128BD
:104C800045D2000002FA00F41145000002FA0600C5
:104C9000520D1032CC05F032CC4411312480F13168
:104CA00024C0F4FE8740B6482400EEFE24001429F8
:104CB00080A5B64224000128C0D50700D089113153
:104CC000CC891031CC0811322400F1322440DCFEB2
:104CD0008541BE48C107CAFE2400BE462400F4FE3A
:104CE0008740B6482400EEFE2400142980A5B64271
:104CF00024000700D0890600510D10384C18F038F8
:104D00002440103124808A420307082980BE0131E3
:104D1000240000F412450000D30323310C0A0031B3
:104D200024000B001180003A2400012840F1080003
:104D300012000000D50383342400FF1F55FC80348B
:104D40002400026424000600900C0128C9DB000046
:104D5000240000F40440003024009040240000F4BB
:104D60008044012895E10B000180000005004065AA
:104D70002400000024000128D8EC904424000124E1
:104D8000C0E0000024000600C10D54450008224187
:104D900024009A6555400600010E2241003400F4BB
:104DA000554010322400003D24000128C0EC0000D2
:104DB00024001460240001000000012815E900000F
:104DC0000500080012000800100003000180060022
:104DD000130D1336240009301138022940970400BE
:104DE000110008001000010000001F29C0C60500C6
:104DF00011000F00110008001000D0334C18106093
:104E000044B8103E24000000000420332440003E3B
:104E10002440013324000229002708642400E336DB
:104E200024000930C41B0930D11B40652400000058
:104E300024000128D8EC90442400012480EC0000D8
:104E400024000600C10D54454008224124009A6503
:104E500055400600010E2241003400F45540103147
:104E60002400003D240000F410453000130073308E
:104E70004C1873302400133024000030244040616B
:104E8000240000000102003824000600C00D113E7D
:104E900024000C290073103E240000338C1B10B03A
:104EA000240000002400012855F300002400000025
:104EB000D50383342400FF1F55FC80342400804038
:104EC000240000000408012895D9000024000600F1
:104ED0001280060010800600510D10304C98F03002
:104EE00024C000002100D6F2C6070A29C0F5824678
:104EF00000049468400886B8C10BD6BC2400103A60
:104F00002480F03A24C0F3362440F3360ED8F43629
:104F10001398F4361118F1360798F1360518F03663
:104F20000398F036011805341490F3362400F23655
:104F3000151800200000F236179807000100718252
:104F40000600D20013362400123E17B8123E153860
:104F5000053E14B81536240000000A80103E0138C2
:104F600019000093143E113830005002043E13B86B
:104F70000029C0BD003824000229C06C00000002D6
:104F800082B824001429C0BE0600D00B00004015D2
:104F9000070090810029801C0038240080402400F4
:104FA0000600D10B002815A80000240000312400C1
:104FB0008040240030001000002815A800000102E5
:104FC0000030240010B0240000002400002815A8A0
:104FD000000024000029801C0000240080402400E0
:104FE0000600D00B002815A8000024000030240083
:104FF0008040240000000102002805A430001000B9
:1050000030001000000001020030240010B0240025
:1050100000002400022955520000C8B00600D10B40
:10502000003124008040240000002400002805AF47
:10503000000024000700528A00322400804024002F
:1050400000002400002809AF0000240092F20008AC
:1050500012602400000000000028C5AE00002400FB
:10506000003224009040240080B800280039240039
:105070000031240080402400000024000129052E76
:10508000000008A80229405200002400000010007F
:105090000600519F0600929F300093040000010219
:1050A000906810A4003B10280600108A0930000008
:1050B000126024000600D09F002848B480B8240065
:1050C0009068240009300020F4361398F436111843
:1050D000F036011805341490F3362400F236151812
:1050E00000200000F2361798070001004058060023
:1050F0000100010006000780000006001800020001
:105100000000FFFFFFFF00000000000000000300A0
:105110000000FDFFFFFF0100000000000000040090
:105120000000FAFFFFFF04000000FFFFFFFF070081
:105130000100E88706004E0013362400123E15B821
:1051400000000A80143E1378103E03B8113E053863
:10515000113E07B8133E0EF812682400033E107883
:10516000FF0FD3FF0000910086BD5098103E043819
:10517000003E12788ABECC8B9E408680012407FFB9
:1051800049FE21286A520188875C0E28BA4E12987F
:105190008642E14084B2C11BE64D240017AD2726AC
:1051A000DE4F04989844C01B00002400012815FD20
:1051B000113A07A8F3362440F3360ED8F136079893
:1051C000F1360518F0360398F43613580020000025
:1051D000F2361598070001000F88060056001336B6
:1051E0002400123E15B800000A80103E03B8113E9C
:1051F0000538113E07B8133E0EF812682400033E2E
:10520000107809305018103E0438103E1278F332EE
:10521000240086BD24009140E3E2093046000224C8
:10522000800A09304700F03201081FFE65648A5E7B
:105230002400BA442400E2FE24008A5D001882445F
:105240006041BA484680C64D2218E64D4780F33685
:105250002400F036125817AD2726DE4F04989844E4
:10526000C01B0000240002281506113A07A8F336D7
:105270002440F3360ED8F1360798F1360518F0368B
:10528000039800200000F2361598070001003A88C4
:1052900006004E0013362400103E10B8113E0538AB
:1052A000023E2400300010009ACE020000000002EE
:1052B0000229401824B0240020C02400000000026D
:1052C000022845109A6E020082412400000000046A
:1052D000022885161AAE240004614C9800002400B0
:1052E000002989B602004816133624000361E5E45C
:1052F000002980B68A404C18002980B68A40414176
:10530000013624008245C59B02288016CACE24009F
:1053100008C42400E2F2C81BF13605180020110071
:10532000F0361098C268240000200000924C24003F
:10533000070001006188060076000600178A133610
:10534000001C9360E3E10000C3030600959F32B1A7
:105350001594003501FC0228552606A324000700F9
:1053600097003F0001C000354C1811B0E5E482B150
:10537000041C00D44C180000050252AC0238060090
:1053800082C01242240000F4574082B1041C00D4B1
:10539000240052AC041442D124000000C43F42B1A6
:1053A00024002241C21B00F457400037244001D1A1
:1053B000656407009700003F14382500D4FF0600FD
:1053C000178010370C160600949FF037D573926C37
:1053D0000838103F2400F03F2440093040100930C5
:1053E000C113106024000000240002294576020049
:1053F00048220228942406000100104024000500E1
:1054000001F610602400000040000228142630003D
:105410009704003F2400F23614183043039800200C
:1054200000008088C11B070001009C880600A400C2
:1054300013362400223E06B8053E14B81536240063
:1054400000000A80103E0138103E03B8113E077874
:1054500048680C9311340D789A45C0100000010281
:1054600012604E38000041020228952D12600FB8DC
:105470000224C52C00002400003001000131078403
:10548000FE6C240042AC24004EAF40201139248031
:105490000228403900002400000081020228D53093
:1054A0001260554402240530000024000030010041
:1054B00001310784F24C240042AC24004EAF40205E
:1054C0001139248002284039000024000000240003
:1054D0000228153580402400103101040FF2030228
:1054E00002244534D68D2400CE4D2400FEF1240044
:1054F0004EAF2400C66D4620DFF103024FAF1110FE
:105500000EF2CC07D68D86240228403900002400F4
:10551000000024000228953700002400FF0FD1FF6F
:105520000224C536103001004FAC01082138248018
:105530000228403900002400FF0FD1FF0224053962
:10554000103001000135079447AC01084EAF8220AE
:10555000113D2480F33624C0F3360D98F1360758F8
:10556000F0360398F036011805341490E336240021
:1055700000200000F236069807000100EE880600C1
:105580005C000600979F003E155C070097003F00F7
:1055900001C00035403811B0E5E482B1041C00D4EC
:1055A0004C180000050252AC0238060082C01242BC
:1055B000240082B157400137240000D4240052ACAB
:1055C000041442D124000000C43F42B1240022410F
:1055D000C21B00F457400037244001D16564070026
:1055E0009700003F14382500D4FF060017801037BD
:1055F0000C160600949FF037D573926C2400103F70
:105600004010F03FC1531060240000002400022825
:1056100014450600010010402400050001F610604A
:10562000D49B000040000228944630009704003FBD
:10563000240000200000F036005807000100DA8244
:1056400006003A00103E12B8113E10B8123E240077
:105650000600929F2500D0FF043ED14B813147F8D0
:105660008CB6404409300208246006380600108ACF
:1056700002294576000088B8000000080161021682
:105680002EAF24001442E31B0EAF1118FF0F00FCD5
:1056900000B2C79B0000C0030028C5BC04B202A032
:1056A0000229803B133602208046C81BF136109831
:1056B00000200000F0361298070001001C89060047
:1056C00022000000000402612400113E0538022877
:1056D000094A023E2400002980B68A408C1800291D
:1056E00080B68A4041418245C81B00200000F13647
:1056F0000518002980B602414C1882B1C81B002051
:105700000000F1360518070001002D89060036005B
:10571000022A8E4B123E17B8103E02380600979FA1
:105720000930C21F043E005C206010B830005104F4
:105730000228144E0600020020402400050002FB4F
:10574000246024002500D0FF022851500031111C94
:1057500084B2240030009004003824802500D0FF5B
:1057600080391018F436117CF03602183000170713
:105770000236248000210000053FD7DB070001002E
:10578000F782060012000200574B13362400003E39
:10579000013800F4C0550000970800F4C05700001D
:1057A000240000200000F03601180700010048899D
:1057B00006000600082A8E1B002800BE02001752B1
:1057C000070001004B8906002800223E15B8053E5F
:1057D00014B81536240000000A808342E3E13F003C
:1057E00003FE34A024000000C33F14D224000000B4
:1057F000010234B22400060083C02643240010A016
:10580000D5400035035810D0C11B05341490E33641
:10581000240000200000F2361598070001005F897F
:1058200006001C0013362400223E15B8053E14B8AD
:1058300015362400003E103807009000D3342400B1
:105840003034240000381018F03624000534149049
:10585000E336240000200000F2361598070001000E
:105860006D890600180013362400223E15B8053E47
:1058700014B815362400043E2400070090000030C0
:105880002400F436240005341490E336240000206C
:105890000000F236159807000100798906007400AF
:1058A00013362400223E15B8053E14B815362400E0
:1058B00000000A80103E0138103E03B884B805B8D5
:1058C000113E2400113E0DB802284069033E0EF837
:1058D00000F483400224CE6600F405410000060275
:1058E00062A524005A4524002000060012D324009B
:1058F0006CB12400200006000228456542D3240034
:105900000000C60142D324006AD52400200006000E
:10591000484424006CB12400200046010228C566DA
:105920000000240068D42400364324000000C13F56
:10593000060086802C46240012B59541003D244087
:10594000060081C02241240094625540013D24009C
:1059500000000040006224000000CE0302285161D4
:1059600088B82400F3360ED8F1360D98F1360518B4
:10597000F0360398F036011805341490E33624000D
:1059800000200000F236159807000100B3890600D8
:105990004C0013362400123E17B8123E1538053E4F
:1059A00014B81536240000000A80103E0138103E5D
:1059B00010B80600108A80B811380600D19F09304F
:1059C00000200930000480402400060011800228D5
:1059D000857182BC24000000000282BC00A0103946
:1059E00024000229405EF03924400600909F060002
:1059F000519F0930000009300104146024000000A8
:105A000024000229457602004872F4362440F0361C
:105A10001098F036011805341490F3362400F2364D
:105A2000151800200000F236179807000100D989E8
:105A300006001A0013362400123E17B8123E15381D
:105A4000053E14B80A2900D9053624001029800122
:105A50001336240005341490F3362400F23615185A
:105A600000200000F236179807000100E6890600C2
:105A7000660013362400123E17B8123E1538053E54
:105A800014B82536240000000A80103E03B8010037
:105A90000200113E0538113E07B8143E11380600C9
:105AA000909F043E13B813340000906024002660D9
:105AB000C033000024000228157F000024000000ED
:105AC000110013342400F43C24400600509F13348A
:105AD0000200F03424002660240000002400022983
